:020000040800F2
:1000000000000220B9020008BF020008C302000875
:1000100035030008390300088103000800000000D0
:10002000000000000000000000000000C9030008FC
:10003000CD03000800000000D1030008A51400084B
:10004000E5030008E5030008E5030008E5030008F0
:10005000E5030008E5030008E5030008E5030008E0
:10006000E5030008E5030008E5030008E5030008D0
:10007000E5030008E5030008E5030008E5030008C0
:10008000E5030008E5030008E5030008E5030008B0
:10009000E5030008E5030008E5030008E5030008A0
:1000A000E5030008E5030008E5030008E503000890
:1000B000E5030008E5030008E5030008E503000880
:1000C000E5030008E5030008E5030008E503000870
:1000D000E5030008E5030008E5030008E503000860
:1000E000E5030008E5030008E5030008E503000850
:1000F000E5030008E5030008E5030008E503000840
:10010000E5030008E5030008E5030008E50300082F
:10011000E5030008E5030008E5030008E50300081F
:10012000E5030008E5030008E5030008E50300080F
:10013000E5030008E5030008E5030008E5030008FF
:10014000E5030008E5030008E5030008E5030008EF
:10015000E5030008E5030008E5030008E5030008DF
:10016000E5030008E5030008E5030008E5030008CF
:10017000E5030008E5030008E503000800000000AF
:10018000E5030008E503000800B583B001F002F8BC
:10019000384B394A1360394A1360394900E0214627
:1001A000384B99420BD20A684B6801F10C048868FD
:1001B0009842F4D952F8041B43F8041BF8E72E4B7D
:1001C0001A68314B9A4200D0FEE72C4B1A682F4B2D
:1001D0009A42F9D1274B2E4A13602E4A13602E4AB9
:1001E00005E0002043F8040B9A42FAD80A462B4B4C
:1001F0009A4204D2114651F8083B5268F4E7244B66
:100200001B6813B9234B1B6803B1FEE701F042F9E9
:10021000694601A800F046FF214C224BE41AA410C5
:10022000002504E01F4B53F8253098470135AC42B8
:10023000F8DC1D4C1D4BE41AA410002504E01B4BF8
:1002400053F8253098470135AC42F8DC0099019805
:1002500001F04EF90546164C164BE41AA41004E0C2
:10026000013C144B53F824309847002CF8DC284606
:1002700000F0EAFEBABADECA0000002074000020D6
:10028000E8030008000400087856341232547698C7
:100290007800002024010020000400081004000859
:1002A00010040008100400081004000810040008DE
:1002B000100400081004000808B5FFF765FF00BE31
:1002C000FEE71EF0040F0CBFEFF30880EFF3098088
:1002D0007146414A10472DE9F04182B004468846F4
:1002E000124B5E6B9F6B9D6A1B6B13F0020F03D06A
:1002F0000E4BDB6A002B0CDB0D4800F0E5FECDF861
:1003000000803B4632462946204600F04FFF00BEA3
:10031000FEE74BF6AB6100F0C3FF0028ECD0034BC7
:100320004FF00042DA6202B0BDE8F08100ED00E07B
:10033000EC20000800BEFEE71EF0040F0CBFEFF338
:100340000880EFF309807146244A10472DE9F041F7
:1003500082B004468846084B5E6B9F6B9D6A0748D7
:1003600000F0B2FECDF800803B46324629462046DA
:1003700000F01CFF00BEFEE700ED00E0FC200008DE
:100380001EF0040F0CBFEFF30880EFF309807146F5
:10039000134A10472DE9F04182B004468846084BC5
:1003A0005E6B9F6B9D6A074800F08EFECDF8008063
:1003B0003B4632462946204600F0F8FE00BEFEE7E6
:1003C00000ED00E00821000800BEFEE700BEFEE7E9
:1003D00000BEFEE770470000D70200084D0300088A
:0803E0009503000800BEFEE7D2
:1003E8005C21000800000020780000205C21000843
:1003F80000000010000000107800002028010020F4
:080408000000001000000010CC
:1004100010B50446074B1868074BA3FB0030800952
:1004200000F0A6F8002221464FF0FF3000F05AF805
:10043000002010BD0C000020D34D621008B50B4BFE
:100440001A6842F400721A601A6842F480621A60F4
:100450001A6842F480721A60032000F025F80F2019
:10046000FFF7D6FF01F0A0F8002008BD003C0240D5
:10047000024A136801331360704700BF1001002067
:10048000014B1868704700BF1001002010B582B002
:100490000190FFF7F5FF0446FFF7F2FF001B019BF9
:1004A0009842F9D302B010BD10B50446C31E042B08
:1004B0000FD80A4AD36823F4E0631B041B0C240200
:1004C00004F4E064234343F0BF6343F40033D36098
:1004D00010BDA421024800F0EDFDEAE700ED00E0C8
:1004E000E81E000870B505460C4616460F2A0FD8C0
:1004F0000F2C12D81B4BDB68C3F30223C3F1070296
:10050000042A28BF0422191D06290BD9033B0AE03F
:10051000BC21154800F0CEFDEAE7BD21124800F0ED
:10052000C9FDE7E700234FF0FF3101FA02F224EAA8
:1005300002049C4001FA03F326EA03063443002D2B
:1005400008DB2401E4B205F1604505F5614585F855
:10055000004370BD05F00F052401E4B2034B5C5568
:10056000F7E700BF00ED00E0E81E000814ED00E032
:100570000138B0F1807F0AD2064B5860064AF0215C
:1005800082F823100020986007221A60704701202B
:10059000704700BF10E000E000ED00E010B5044639
:1005A000042800D038B9042C0BD0094A136823F072
:1005B0000403136010BD40F2B311064800F07AFD49
:1005C000F1E7034A136843F004031360F2E700BF46
:1005D00010E000E0E81E00082DE9F04782B08046F8
:1005E0000E46B84B984223D003F5806398421FD043
:1005F00003F5806398421BD003F58063984217D0BF
:1006000003F58063984213D003F5806398420FD0BE
:1006100003F5806398420BD003F58063984207D0BE
:1006200003F58063984203D0C521A74800F042FD3E
:10063000338833B37368012B1ED9112B1CD0022BC6
:100640001AD0122B18D0A14A934215D002F580126D
:10065000934211D002F5801293420DD0A2F5F81208
:10066000934209D002F58012934205D002F5801220
:10067000934201D0032B09D1B368022B0BD800247D
:100680004FE0C621904800F015FDD3E7C7218E4802
:1006900000F010FDF0E7C8218B4800F00BFDEEE7FD
:1006A000D921894800F006FD67E0EC21864800F07A
:1006B00001FD92E0082300E000238B400343023257
:1006C000834941F82230834B1A68FB4303EA020155
:1006D000706810F4803F01D047EA02017D4A116042
:1006E000526803EA0201706810F4003F01D047EA43
:1006F0000201784A5160926803EA0201706810F4BE
:10070000801F01D047EA0201724A9160D26813400B
:10071000716811F4001F01D047EA02036D4AD360EB
:1007200001340F2C00F2CB800125A54037682F4003
:10073000BD42F5D17368022B01D0122B2DD1336944
:10074000DBB1092B19D0012B17D0022B15D0032BAD
:1007500013D0042B11D0052B0FD0062B0DD0072B57
:100760000BD0082B09D00A2B07D00B2B05D00C2B54
:1007700003D00D2B01D00F2B92D1E208083258F88C
:10078000220004F0070399000F238B4020EA0300A6
:1007900033698B40034348F82230D8F800204FEAF1
:1007A000440A4FF0030909FA0AF96FEA090909EA4C
:1007B0000202736803F0030303FA0AF31343C8F851
:1007C000003073685A1E012A03D9112B01D0122B55
:1007D00018D1F368032B3FF668AFD8F8082009EA70
:1007E0000202F36803FA0AF31343C8F80830D8F892
:1007F000042022EA05027368C3F30015A5401543DF
:10080000C8F80450D8F80C3009EA0309B36803FAB1
:100810000AF343EA0903C8F80C30736813F0805FE9
:100820003FF47EAF002301932B4B5A6C42F480427D
:100830005A645B6C03F480430193019BA208911CF2
:10084000234B53F8210004F0030399000F238B403E
:1008500020EA03001B4B98453FF42EAF03F580635D
:1008600098451ED003F5806398451CD003F580633E
:1008700098451AD003F58063984518D003F5806336
:10088000984516D003F58063984514D003F580632E
:10089000984512D003F5806398453FF40BAF0923C8
:1008A0000BE7012309E7022307E7032305E70423F6
:1008B00003E7052301E70623FFE60723FDE602B071
:1008C000BDE8F087000002401C1F00080000111066
:1008D00000380140003C01400038024070B5064637
:1008E00015460C4621B1012D08D86DB1B46170BD1B
:1008F00040F2B111064800F0DDFBF4E74FF4D97186
:10090000034800F0D7FBF0E72404B461EFE700BF31
:100910001C1F000830B583B0044603680F2B29D88C
:10092000236813F0010F3DD06368012B01D9052B1B
:1009300025D1A24B9B6803F00C03042B29D09F4BBD
:100940009B6803F00C03082B1ED022799C4B1A7075
:100950006368002B50D0FFF793FD0546974B1B684B
:1009600013F4003F1ED1FFF78BFD401B6428F5D91F
:100970000320E3E1F521934800F09CFBD0E7FA2146
:10098000904800F097FBD4E78C4B5B6813F4800F22
:10099000DBD08A4B1B6813F4003F03D06368002B45
:1009A00000F0C781236813F0020F5CD0E368012BCD
:1009B00031D823691F2B34D8804B9B6813F00C0F60
:1009C0003AD07E4B9B6803F00C03082B2FD0E368D2
:1009D000002B73D07C4B01221A60FFF751FD0546B6
:1009E000764B1B6813F0020F59D1FFF749FD401BEE
:1009F0000228F5D90320A1E1FFF742FD05466F4B20
:100A00001B6813F4003FCDD0FFF73AFD401B64286C
:100A1000F5D9032092E14FF496716A4800F04AFB41
:100A2000C7E740F22D11674800F044FBC4E7634B71
:100A30005B6813F4800FCAD1604B1B6813F0020F80
:100A400003D0E368012B40F076815C48036823F013
:100A5000F8032169F82292FAA2F2B2FA82F201FABC
:100A600002F213430360236813F0080F50D0636948
:100A7000012B35D86369002B38D0544B01221A6002
:100A8000FFF7FEFC05464D4B5B6F13F0020F3FD1A5
:100A9000FFF7F6FC401B0228F5D903204EE147483A
:100AA000036823F0F8032169F82292FAA2F2B2FA5D
:100AB00082F201FA02F213430360D4E7424B0022B0
:100AC0001A60FFF7DDFC05463C4B1B6813F0020F74
:100AD000C9D0FFF7D5FC401B0228F5D903202DE132
:100AE00040F26D11374800F0E5FAC3E7374B0022BA
:100AF0001A60FFF7C5FC0546304B5B6F13F0020F21
:100B000006D0FFF7BDFC401B0228F5D9032015E1F4
:100B1000236813F0040F5FD0A368012B01D9052BC4
:100B20001FD100230193254B1A6C42F080521A64A6
:100B30001B6C03F080530193019B254A136843F417
:100B400080731360FFF79CFC0546214B1B6813F470
:100B5000807F0CD1FFF794FC401B0228F5D90320BD
:100B6000ECE040F29711174800F0A4FAD9E7227A96
:100B7000184B1A70A36883B1FFF782FC05460F4B30
:100B80001B6F13F0020F27D1FFF77AFC401B41F2D5
:100B900088339842F3D90320D0E0FFF771FC054673
:100BA000064B1B6F13F0020F16D0FFF769FC401BBA
:100BB00041F288339842F3D90320BFE00038024065
:100BC000023802405C1F000800004742800E474286
:100BD0000070004070380240A369022B39D8A36925
:100BE000002B00F0AA80574A926802F00C02082AF3
:100BF00000F0A680022B40F08880E36913B1B3F5C2
:100C0000800F2CD1236A3F2B2FD8636A323BB3F578
:100C1000BF7F30D8A36A022B05D0042B03D0062B4C
:100C200001D0082B2DD1E36A043B0B2B2FD8464B68
:100C300000221A60FFF724FC0546424B1B6813F0A4
:100C4000007F2AD0FFF71CFC401B0228F5D90320A7
:100C500074E04FF4E6713D4800F02CFABFE740F233
:100C6000D5113A4800F026FACCE74FF4EB7137483B
:100C700000F020FAC9E740F2D711344800F01AFA20
:100C8000C8E74FF4EC71314800F014FACBE740F2BA
:100C9000D9112E4800F00EFAC9E7E369226A13431E
:100CA000616A47F6C07292FAA2F2B2FA82F201FACF
:100CB00002F21343A26A5208013A4FF4403191FA0A
:100CC000A1F1B1FA81F18A401343E16A4FF07062F9
:100CD00092FAA2F2B2FA82F201FA02F21343194A2C
:100CE0005360194B01221A60FFF7CAFB0446154BEB
:100CF0001B6813F0007F06D1FFF7C2FB001B022820
:100D0000F5D903201AE0002018E00F4B00221A60EA
:100D1000FFF7B6FB04460B4B1B6813F0007F06D0B1
:100D2000FFF7AEFB001B0228F5D9032006E00020E8
:100D300004E0012002E0012000E0002003B030BD0B
:100D40000120FBE700380240600047425C1F0008BA
:100D5000214B9B6803F00C03042B38D0082B38D1AF
:100D60001D4B586800F03F005B6813F4800F1ED0E5
:100D70001A4AB2FBF0F2184B586847F6C073184095
:100D800093FAA3F3B3FA83F3D84000FB02F0124BBB
:100D90005B6803F440334FF4403292FAA2F2B2FAA5
:100DA00082F2D34001335B00B0FBF3F070470C4A92
:100DB000B2FBF0F2084B586847F6C073184093FA3C
:100DC000A3F3B3FA83F3D84000FB02F0DFE7034854
:100DD00070470348704700BF0038024000127A0095
:100DE0000024F40070B504460D460368013B0E2B49
:100DF0005ED8072D62D88C4B1B6803F00F03AB4203
:100E000008D2EBB2884A1370136803F00F03AB42A9
:100E100040F00481236813F0020F18D0A3687BB15F
:100E2000802B0DD0902B0BD0A02B09D0B02B07D04E
:100E3000C02B05D0D02B03D0E02B01D0F02B43D119
:100E40007A4A936823F0F003A1680B439360236808
:100E500013F0010F7FD06368032B3BD86368012B2D
:100E60003ED09A1E012A42D9704A126812F0020F2F
:100E700000F0D6806D498A6822F0030213438B602C
:100E8000FFF7FEFA06466368012B37D0022B44D0E9
:100E9000032B51D0654B9B6813F00C0F5BD0FFF711
:100EA000EFFA801B41F288339842F3D90320A8E07F
:100EB00040F237215E4800F0FDF89AE74FF40E71DA
:100EC0005B4800F0F7F896E740F24F21584800F0F1
:100ED000F1F8B5E740F25621554800F0EBF8BDE7D0
:100EE000524A126812F4003FC4D1012089E04F4AEF
:100EF000126812F0007FBDD1012082E04B4B9B684D
:100F000003F00C03042B26D0FFF7BAFA801B41F242
:100F100088339842F2D9032073E0444B9B6803F076
:100F20000C03082B17D0FFF7ABFA801B41F2883374
:100F30009842F2D9032064E03C4B9B6803F00C0319
:100F40000C2B08D0FFF79CFA801B41F288339842A3
:100F5000F2D9032055E0344B1B6803F00F03AB427A
:100F600007D9EAB2304B1A701B6803F00F03AB428B
:100F700058D1236813F0040F14D0E3685BB1B3F5C4
:100F8000805F08D0B3F5A05F05D0B3F5C05F02D095
:100F9000B3F5E05F36D1254A936823F4E053E16866
:100FA0000B439360236813F0080F15D023695BB1DE
:100FB000B3F5805F08D0B3F5A05F05D0B3F5C05F8F
:100FC00002D0B3F5E05F23D1184A936823F460435D
:100FD000216943EAC1039360FFF7BAFE134B9B6894
:100FE00003F0F003F02292FAA2F2B2FA82F2D340B6
:100FF000104AD35CD840104B18600F20FFF708FA56
:10100000002070BD4FF42D71094800F053F8C2E77D
:1010100040F2BB21064800F04DF8D5E70120F0E78B
:101020000120EEE70120ECE7003C024000380240DE
:101030005C1F00084C1F00080C000020014B1868C2
:10104000704700BF0C000020FEE7000008B5034811
:1010500000F054F80120FFF7F7FF00BF8C1F0008D5
:1010600008B503460C4A12685AB10B4A106803339C
:1010700023F003030344094A934206D8064A136047
:1010800008BD054A06491160EFE700F08FFA0C230E
:1010900003604FF0FF30F3E77C00002000FC0120EC
:1010A0002801002001230360014B0B60704700BF43
:1010B0000400002008B50A460146024800F004F882
:1010C000FFF7C4FFA01F00080FB400B583B004AB46
:1010D00053F8042B01938021074800F0ABFA002855
:1010E00004DC03B05DF804EB04B07047014602482D
:1010F00000F04CF8F5E700BF8400002010B504466E
:1011000000F064FA0146204600F040F80121024850
:1011100000F03CF810BD00BF68200008F0B585B0B5
:1011200006460C46174B1B6883B9174B01930423E3
:10113000029303230393012501AF28463946ABBE32
:101140000546B5F1FF3F14D00E4B1D600D4B1B68DB
:10115000019302960394052501AE28463146ABBEA5
:101160000546B5F1FF3F07D0AC4208D0601B05B083
:10117000F0BD4FF0FF30FAE74FF0FF30F7E74FF0E8
:10118000FF30F4E704010020CC1F000808B5FFF78A
:10119000C5FF08BD08B500F0BFF8024A024B9A60CF
:1011A00008BD00BF0000000800ED00E0F8B50446EF
:1011B0000D4617461E462748FFF786FF216826483A
:1011C000FFF782FF61682548FFF77EFFA16824488A
:1011D000FFF77AFFE1682348FFF776FF216922488D
:1011E000FFF772FF61692148FFF76EFFA169204890
:1011F000FFF76AFFE1691F48FFF766FF1E48FFF728
:1012000063FF29461D48FFF75FFF1D4CE16A1D483B
:10121000FFF75AFF216B1C48FFF756FFE16B1B4895
:10122000FFF752FF15F0800F0AD115F4004F0CD1D3
:101230001748FFF749FF06991648FFF745FFF8BD25
:1012400039461548FFF740FFEFE731461348FFF7EF
:101250003BFFEDE7D01F0008E01F0008F01F00086B
:10126000002000081020000820200008302000087E
:101270004020000850200008602000086C20000872
:1012800000ED00E07C2000088C2000089C20000875
:10129000CC200008D4200008AC200008BC200008A6
:1012A00070B585692B888B4201D0002070BD044643
:1012B00003684668013B042B29D8DFE803F00328C4
:1012C00014141E001349306800F076F940B97368B1
:1012D00013B90123236006E0042B08D0082B09D0A2
:1012E0004FF0FF3323600235A5610120DEE70223C2
:1012F0002360F8E703232360F5E73368023B012B03
:1013000002D9B3680360EEE700230360EBE7002037
:10131000CCE700BFCC1F00080C4B1A6842F001025A
:101320001A60002199601A6822F0847222F48032D7
:101330001A60074A5A601A6822F480221A60D9603B
:10134000044B4FF000629A60704700BF00380240C3
:101350001030002400ED00E0224B9B6803F00C03EA
:10136000042B14D0082B16D01BB11F4B1F4A1A6038
:1013700002E01D4B1D4A1A601A4B9B68C3F303130E
:101380001B4AD15C184A1368CB4013607047164B58
:10139000184A1A60F0E7134B5A685B6803F03F0382
:1013A00012F4800F13D0134AB2FBF3F20D4B5B68BB
:1013B000C3F3881303FB02F30A4A5268C2F30142E3
:1013C00001325200B3FBF2F3074A1360D4E7074A35
:1013D000B2FBF3F2034B5B68C3F3881303FB02F326
:1013E000EAE700BF003802400C0000200024F400AF
:1013F0001821000800127A0030B595B0002401943D
:10140000214B1A6C42F080521A641B6C03F080531B
:101410000193019B02941D4B1A6842F480421A60AA
:101420001B6803F480430293029B012308930993F2
:101430004FF480030F93082310934FF4A873119374
:1014400002251295072313930E9508A8FFF762FA59
:101450000F230393049505944FF4A05306934FF480
:1014600080530793052103A8FFF7BCFCFFF7E6FDB7
:10147000074BA3FB00308009FFF77AF80420FFF741
:101480008DF815B030BD00BF00380240007000403C
:10149000D34D621008B5FEF7D1FFFFF7ADFFFFF7A0
:1014A0005BFF08BD08B5FEF7E3FF08BD00B587B0D8
:1014B000002100910C4B1A6B42F008021A631B6B5F
:1014C00003F008030093009B4FF470430193012342
:1014D000029302230393049101A90448FFF77CF8C7
:1014E00007B05DF804FB00BF00380240000C02406A
:1014F00008B5FFF7D7FFFEF7A1FFFFF7D7FF294C8D
:1015000001224FF480512046FFF7E8F94FF496701E
:10151000FEF7BCFF00224FF480512046FFF7DEF9B2
:101520004FF46170FEF7B2FF01224FF400512046E4
:10153000FFF7D4F94FF49670FEF7A8FF00224FF49E
:1015400000512046FFF7CAF94FF46170FEF79EFF85
:1015500001224FF480412046FFF7C0F94FF4967006
:10156000FEF794FF00224FF480412046FFF7B6F9C2
:101570004FF46170FEF78AFF01224FF400412046CC
:10158000FFF7ACF94FF49670FEF780FF00224FF49E
:1015900000412046FFF7A2F94FF46170FEF776FF95
:1015A000ADE700BF000C024070470000014B186817
:1015B000704700BF1000002010F8012B11F8013B0C
:1015C000012A28BF9A42F7D0D01A7047034613F871
:1015D000012B002AFBD1181A0138704730B5141EB0
:1015E00005469BB0184605DA8B232B604FF0FF3081
:1015F0001BB030BD4FF40273ADF80C3014BF04F1D2
:10160000FF332346029305934FF6FF730091049135
:10161000ADF80E3002461E9B6946284600F074F86D
:10162000431CBCBF8B232B60002CE1D0009B00220D
:101630001A70DDE707B5009313460A4601460348D2
:101640000068FFF7CBFF03B05DF804FB100000203B
:101650002DE9F0478E689E4282460C469146984698
:1016600038D8B1F80CC01CF4906F31D0626925688D
:10167000096902EB42026F1A02EBD2720133551074
:101680003B449D4238BF1D461CF4806F30D0294634
:1016900000F084FB064650B90C23CAF80030A38939
:1016A00043F04003A3814FF0FF30BDE8F0873A4696
:1016B000216900F0FDFAA38923F4906343F08003CD
:1016C000A381266165613E44ED1B2660A560464608
:1016D000464500D9464632464946206800F0F6FAAB
:1016E000A3689B1BA36023681E4426600020DCE7E0
:1016F0002A4600F0ADFB06460028E2D1216950469B
:1017000000F0FEFAC8E700002DE9F04F1E468B8975
:101710001B069DB007460D4614460ED50B6963B9EE
:10172000402100F03BFB2860286120B90C233B607E
:101730004FF0FF30C9E040236B6100230993202361
:101740008DF82930DFF89C91039630238DF82A30EC
:101750004FF0010A23461E4613F8012B0AB1252A31
:10176000F9D1B6EB040B0BD05B462246294638462E
:10177000FFF76EFF013000F0A380099B5B440993E3
:101780003378002B00F09C8000234FF0FF32CDE92E
:1017900005230136049307938DF853301A9334468A
:1017A000052214F8011B4F4800F032FA049BC0B91F
:1017B000D90644BF20228DF853201A0744BF2B229C
:1017C0008DF8532032782A2A13D0079A3446002005
:1017D0000A26214611F8013B303B092B4BD970B941
:1017E00014E0A0EB09000AFA00F018430490264622
:1017F000D5E7039A111D12680391002A01DB0792B5
:1018000004E0524243F002030792049323782E2B04
:101810000CD163782A2B33D1039B1A1D1B680392CA
:10182000002BB8BF4FF0FF33023405932E4E2178C2
:101830000322304600F0ECF938B14023801B03FA54
:1018400000F0049B03430134049314F8011B274860
:101850008DF82810062200F0DBF9002838D0244B40
:1018600013BB039B073323F0070308330393099B40
:10187000434409936EE706FB023201200C46A8E7B9
:1018800000230134059319460A26204610F8012B3F
:10189000303A092A03D9002BC8D00591C6E706FBC8
:1018A000012101230446F0E703AB00932A46114BC4
:1018B00004A93846AFF30080B0F1FF3F8046D6D18F
:1018C000AB895B063FF534AF09981DB0BDE8F08FDA
:1018D00003AB00932A46074B04A9384600F082F870
:1018E000EAE700BF282100082E2100083221000865
:1018F00000000000511600082DE9F04791461F46F0
:101900008A680B69DDF820809342B8BF1346C9F896
:10191000003091F8432006460C4612B10133C9F855
:1019200000302368990642BFD9F800300233C9F865
:101930000030256815F0060507D104F1190AE3689F
:10194000D9F800209B1AAB4228DC94F84330226877
:10195000003318BF012392062DD404F14302394607
:101960003046C047013020D02368E568D9F8002010
:1019700003F00603042B08BFAD1AA36822690CBF4D
:1019800025EAE57500259342C4BF9B1AED184FF078
:1019900000091A344D451AD1002008E001235246AF
:1019A00039463046C047013003D14FF0FF30BDE823
:1019B000F0870135C3E7E1185A1C302081F8430055
:1019C000224494F8451082F843100233C5E70123FE
:1019D000224639463046C0470130E6D009F10109B8
:1019E000D8E700002DE9F04306460C4601F143001C
:1019F000097E85B06E29984617460C9B00F0BA8088
:101A000024D8632939D00AD8002900F0C380582986
:101A100000F0918004F1420584F8421035E0642919
:101A200001D06929F6D125681A6815F0800F02F1F6
:101A300004012CD012681960002A03DA2D235242C7
:101A400084F84330DFF8BCC10A233FE0732900F07B
:101A5000A58008D86F2921D07029DBD1226842F0F7
:101A60002002226003E0752918D07829D2D178228B
:101A700084F84520DFF890C161E01A68111D1960F3
:101A8000136884F8423004F14205012393E01268A0
:101A9000196015F0400F18BF12B2CDE7D4F800C09E
:101AA0001A681CF0800F02F104051D6001D0126855
:101AB00003E01CF0400FFAD01288DFF848C16F290C
:101AC0000CBF08230A23002184F843106568A56031
:101AD000002DA2BF216821F0040121600AB9002D68
:101AE00046D00546B2FBF3F103FB112E93421CF8DE
:101AF0000EE005F801ED39D9082B0BD12368DA0780
:101B000008D5236962689A42DEBF302305F8013C9C
:101B100005F1FF35401B2061CDF800803B4603AA4C
:101B200021463046FFF7E8FE013049D14FF0FF3043
:101B300005B0BDE8F083DFF8CCC084F845101D681F
:101B4000216855F8042B1D600D060BD5CD0744BF49
:101B500041F0200121601AB9236823F0200323609B
:101B60001023B0E74B0648BF92B2EFE70A46B9E749
:101B70000546C1E71A68D4F800C06169151D1D60EB
:101B80001CF0800F136801D0196003E01CF0400FB7
:101B9000FAD01980002323610546BDE71A68111D9C
:101BA0001960156862680021284600F031F808B114
:101BB000401B606063682361002384F84330ABE717
:101BC00023692A4639463046C0470130AED02368E3
:101BD0009B0713D4E068039B9842B8BF1846A7E759
:101BE00001234A4639463046C04701309ED0013570
:101BF000E368039A9B1AAB42F2DCEBE7002504F1A1
:101C00001909F5E7392100084A2100080000000001
:101C100001F0FF01102A2BDB10F0070F08D010F89D
:101C2000013B013A8B422DD010F0070F42B3F6D1A1
:101C3000F0B441EA012141EA014122F007047FF0BA
:101C400000070023F0E80256083C85EA010586EA11
:101C5000010685FA47F5A3FA87F586FA47F6A5FA4D
:101C600087F68EB9EED1F0BC01F0FF0102F0070259
:101C700032B110F8013B013A83EA010313B1F8D104
:101C80000020704701387047002D06BF35460338E5
:101C9000073815F0010F07D1013015F4807F02BF1E
:101CA000013015F4C03F0130F0BC0138704700BF6F
:101CB0000A44914200F1FF3300D1704710B511F88A
:101CC000014B03F8014F9142F9D110BD884210B584
:101CD00001EB020302D983421C4607D8421E9942F7
:101CE00008D011F8014B02F8014FF8E783189A1A4F
:101CF0009A4200D110BD14F8011D03F8011DF7E749
:101D000038B50546002945D051F8043C0C1F002B7E
:101D1000B8BFE41800F0D2F81F4A1368104633B970
:101D2000636014602846BDE8384000F0CDB8A34297
:101D30000CD921686218934204BF1A685B6863601B
:101D400004BF521822600460ECE713465A680AB1D7
:101D5000A242FAD919685818A0420BD12068014450
:101D6000581882421960DDD1106852685A600144E7
:101D70001960D7E702D90C232B60D3E7206821181C
:101D80008A4204BF11685268626004BF091821606A
:101D90005C60C7E738BD00BF08010020F8B5CD1C66
:101DA00025F0030508350C2D38BF0C25002D0646FF
:101DB00001DBA94203D90C2333600020F8BD00F0F9
:101DC0007DF821490A6814469CB9204F3B6823B925
:101DD0002146304600F062F838602946304600F06F
:101DE0005DF8431C23D10C233360304600F06CF8BF
:101DF000E3E723685B1B17D40B2B03D923601C4438
:101E0000256004E06368A2420CBF0B60536030465B
:101E100000F05AF804F10B00231D20F00700C21A4D
:101E2000CCD01B1AA350C9E722466468CCE7C41C77
:101E300024F00304A042E3D0211A304600F02EF82B
:101E40000130DDD1CFE700BF080100200C010020E8
:101E5000F8B5074614460E4621B91146BDE8F840CC
:101E6000FFF79CBF22B9FFF74BFF25462846F8BD78
:101E700000F030F8A0420FD221463846FFF78EFF1F
:101E800005460028F2D031462246FFF711FF3146C1
:101E90003846FFF735FFE9E73546E7E738B5064C42
:101EA0000023054608462360FFF7DAF8431C02D1F9
:101EB000236803B12B6038BD14010020014800F0F5
:101EC00011B800BF1C010020014800F00CB800BF91
:101ED0001C01002051F8043C181F002BBCBF0B58FC
:101EE000C0187047704770472E2E2F737973746532
:101EF0006D2F7372632F73746D333266342D686186
:101F00006C2F73746D3332663478785F68616C5F00
:101F1000636F727465782E63000000002E2E2F739D
:101F2000797374656D2F7372632F73746D333266BA
:101F3000342D68616C2F73746D3332663478785F3A
:101F400068616C5F6770696F2E63000000000000BD
:101F50000102030401020304060708092E2E2F7351
:101F6000797374656D2F7372632F73746D3332667A
:101F7000342D68616C2F73746D3332663478785FFA
:101F800068616C5F7263632E6300000061626F7250
:101F90007428292C2065786974696E672E2E2E00AE
:101FA0006173736572745F706172616D2829206658
:101FB00061696C65643A2066696C6520222573222C
:101FC0002C206C696E652025640A00003A74740048
:101FD000537461636B206672616D653A0A0000009C
:101FE000205230203D2020253038580A00000000C3
:101FF000205231203D2020253038580A00000000B2
:10200000205232203D2020253038580A00000000A0
:10201000205233203D2020253038580A000000008F
:1020200020523132203D20253038580A000000006F
:10203000204C52203D2020253038580A0000000056
:10204000205043203D2020253038580A0000000051
:1020500020505352203D20253038580A00000000FF
:102060004653522F4641523A0A000000204346533D
:1020700052203D2020253038580A00002048465381
:1020800052203D2020253038580A00002044465375
:1020900052203D2020253038580A00002041465368
:1020A00052203D2020253038580A0000204D4D4652
:1020B0004152203D20253038580A00002042464138
:1020C00052203D2020253038580A00004D697363A6
:1020D0000A000000204C522F4558435F524554558A
:1020E000524E3D20253038580A0000005B4861728E
:1020F000644661756C745D0A000000005B42757394
:102100004661756C745D0A005B5573616765466175
:10211000756C745D0A000000000000000000000003
:102120000102030406070809232D302B2000686CE8
:102130004C006566674546470030313233343536EA
:102140003738394142434445460030313233343523
:0B215000363738396162636465660051
:10215C007856341280000020000000000024F400A7
:10216C00140000200000000000000000000000002F
:10217C000000000000000000000000000000000053
:10218C000000000000000000000000000000000043
:10219C000000000000000000000000000000000033
:1021AC000000000000000000000000000000000023
:1021BC000000000000000000000000000000000013
:0821CC00000000003254769877
:040000050800018965
:00000001FF
